{
  "address": "0x40f906e19B14100D5247686E08053c4873c66192",
  "abi": [
    {
      "inputs": [],
      "name": "getBalance",
      "outputs": [
        {
          "internalType": "uint256",
          "name": "balance",
          "type": "uint256"
        }
      ],
      "stateMutability": "view",
      "type": "function"
    },
    {
      "inputs": [],
      "name": "provideRewards",
      "outputs": [],
      "stateMutability": "nonpayable",
      "type": "function"
    },
    {
      "inputs": [
        {
          "internalType": "address",
          "name": "shyftStaking_",
          "type": "address"
        }
      ],
      "name": "setShyftStaking",
      "outputs": [],
      "stateMutability": "nonpayable",
      "type": "function"
    },
    {
      "inputs": [],
      "name": "shyftStaking",
      "outputs": [
        {
          "internalType": "contract IShyftStaking",
          "name": "",
          "type": "address"
        }
      ],
      "stateMutability": "view",
      "type": "function"
    },
    {
      "stateMutability": "payable",
      "type": "receive"
    }
  ],
  "transactionHash": "0x5c388a182a5639ddd64fa5ddaae4a52c678f82b008b98ba75798b4a36f620680",
  "args": [],
  "solcInputHash": "0c583e5821f98d39575a27b015cbe420",
  "bytecode": "0x608060405234801561001057600080fd5b506101cd806100206000396000f3fe6080604052600436106100435760003560e01c80631048909e1461004f57806312065fe014610080578063b862275c146100a7578063e2247bd1146100dc5761004a565b3661004a57005b600080fd5b34801561005b57600080fd5b506100646100f1565b604080516001600160a01b039092168252519081900360200190f35b34801561008c57600080fd5b50610095610100565b60408051918252519081900360200190f35b3480156100b357600080fd5b506100da600480360360208110156100ca57600080fd5b50356001600160a01b0316610104565b005b3480156100e857600080fd5b506100da610126565b6000546001600160a01b031681565b4790565b600080546001600160a01b0319166001600160a01b0392909216919091179055565b60008054906101000a90046001600160a01b03166001600160a01b0316630c51dde4678ac7230489e800006040518263ffffffff1660e01b81526004016000604051808303818588803b15801561017c57600080fd5b505af1158015610190573d6000803e3d6000fd5b505050505056fea2646970667358221220d2c1f6bbb76e04517f0e5460a2bbea2f52cf4ba6e5c148446ead205a8dbc348164736f6c63430007060033",
  "devdoc": {
    "details": "WARNING Only for testing purposes.",
    "kind": "dev",
    "methods": {},
    "title": "RewardsDistribution test contract",
    "version": 1
  },
  "userdoc": {
    "kind": "user",
    "methods": {},
    "version": 1
  },
  "storageLayout": {
    "storage": [
      {
        "astId": 13,
        "contract": "contracts/test/RewardsDistribution.sol:RewardsDistribution",
        "label": "shyftStaking",
        "offset": 0,
        "slot": "0",
        "type": "t_contract(IShyftStaking)6"
      }
    ],
    "types": {
      "t_contract(IShyftStaking)6": {
        "encoding": "inplace",
        "label": "contract IShyftStaking",
        "numberOfBytes": "20"
      }
    }
  }
}